:020000040800F2
:100000000080012039100008550F00085B0F000820
:10001000610F0008670F00086D0F00080000000066
:10002000000000000000000000000000730F000846
:10003000810F0008000000008F0F00089D0F0008CE
:10004000891000088910000889100008891000082C
:10005000891000088910000889100008891000081C
:10006000891000088910000889100008891000080C
:1000700089100008891000088910000889100008FC
:1000800089100008891000088910000889100008EC
:1000900089100008891000088910000889100008DC
:1000A00089100008891000088910000889100008CC
:1000B00089100008891000088910000889100008BC
:1000C00089100008891000088910000889100008AC
:1000D000891000088910000889100008891000089C
:1000E000891000088910000889100008891000088C
:1000F000891000088910000889100008891000087C
:10010000891000088910000889100008891000086B
:10011000891000088910000889100008891000085B
:10012000891000088910000889100008891000084B
:10013000891000088910000889100008891000083B
:10014000891000088910000889100008891000082B
:10015000891000088910000889100008891000081B
:10016000891000088910000889100008891000080B
:10017000891000088910000889100008000000009C
:08018000891000088910000835
:1001900010B5054C237833B9044B13B10448AFF3C1
:1001A00000800123237010BD7000002000000000BB
:1001B000684A000808B5034B1BB103490348AFF375
:1001C000008008BD0000000074000020684A00089C
:1001D00001F0FF01102A2BDB10F0070F08D010F8F8
:1001E000013B013A8B422DD010F0070F42B3F6D1FC
:1001F000F0B441EA012141EA014122F007047FF015
:1002000000070023F0E80256083C85EA010586EA6B
:10021000010685FA47F5A3FA87F586FA47F6A5FAA7
:1002200087F68EB9EED1F0BC01F0FF0102F00702B3
:1002300032B110F8013B013A83EA010313B1F8D15E
:100240000020704701387047002D06BF354603383F
:10025000073815F0010F07D1013015F4807F02BF78
:10026000013015F4C03F0130F0BC0138704700BFC9
:1002700081F0004102E000BF83F0004330B54FEA57
:1002800041044FEA430594EA050F08BF90EA020FC4
:100290001FBF54EA000C55EA020C7FEA645C7FEA57
:1002A000655C00F0E2804FEA5454D4EB5555B8BF7A
:1002B0006D420CDD2C4480EA020281EA030382EAEB
:1002C000000083EA010180EA020281EA0303362D7D
:1002D00088BF30BD11F0004F4FEA01314FF4801C50
:1002E0004CEA113102D0404261EB410113F0004F62
:1002F0004FEA03334CEA133302D0524263EB430319
:1003000094EA050F00F0A780A4F10104D5F1200EB6
:100310000DDB02FA0EFC22FA05F2801841F1000111
:1003200003FA0EF2801843FA05F359410EE0A5F1E5
:1003300020050EF1200E012A03FA0EFC28BF4CF016
:10034000020C43FA05F3C01851EBE37101F00045CC
:1003500007D54FF0000EDCF1000C7EEB00006EEBD9
:100360000101B1F5801F1BD3B1F5001F0CD3490863
:100370005FEA30004FEA3C0C04F101044FEA4452BA
:1003800012F5800F80F09A80BCF1004F08BF5FEA41
:10039000500C50F1000041EB045141EA050130BD21
:1003A0005FEA4C0C404141EB0101013C28BFB1F533
:1003B000801FE9D291F0000F04BF01460020B1FA7E
:1003C00081F308BF2033A3F10B03B3F120020CDA51
:1003D0000C3208DD02F1140CC2F10C0201FA0CF02F
:1003E00021FA02F10CE002F11402D8BFC2F1200C94
:1003F00001FA02F120FA0CFCDCBF41EA0C0190404A
:10040000E41AA2BF01EB0451294330BD6FEA040492
:100410001F3C1CDA0C340EDC04F11404C4F120027D
:1004200020FA04F001FA02F340EA030021FA04F38F
:1004300045EA030130BDC4F10C04C4F1200220FAE6
:1004400002F001FA04F340EA0300294630BD21FA24
:1004500004F0294630BD94F0000F83F4801306BFEA
:1004600081F480110134013D4EE77FEA645C18BFDE
:100470007FEA655C29D094EA050F08BF90EA020F75
:1004800005D054EA000C04BF1946104630BD91EA6D
:10049000030F1EBF0021002030BD5FEA545C05D170
:1004A0004000494128BF41F0004130BD14F58004AF
:1004B0003CBF01F5801130BD01F0004545F0FE4123
:1004C00041F470014FF0000030BD7FEA645C1ABF58
:1004D000194610467FEA655C1CBF0B46024650EA8F
:1004E000013406BF52EA033591EA030F41F40021BB
:1004F00030BD00BF90F0000F04BF0021704730B541
:100500004FF4806404F132044FF000054FF0000115
:1005100050E700BF90F0000F04BF0021704730B5D6
:100520004FF4806404F1320410F0004548BF4042AB
:100530004FF000013EE700BF42004FEAE2014FEA00
:1005400031014FEA02701FBF12F07F4393F07F4FDB
:1005500081F06051704732F07F4208BF704793F0DE
:100560007F4F04BF41F40021704730B54FF46074F1
:1005700001F0004521F000411CE700BF50EA0102F4
:1005800008BF704730B54FF000050AE050EA01029D
:1005900008BF704730B511F0004502D5404261EB0D
:1005A00041014FF4806404F132045FEA915C3FF44E
:1005B000D8AE4FF003025FEADC0C18BF03325FEAEB
:1005C000DC0C18BF033202EBDC02C2F1200300FA9C
:1005D00003FC20FA02F001FA03FE40EA0E0021FAC1
:1005E00002F11444BDE600BF80B584B000AF0346FD
:1005F0000A46FB711346BB71BB791A464FF4804122
:100600004FF0904002F090FAFB7903F00103FB7386
:10061000FB7B1A4640214FF0904002F085FAFB79AF
:100620005B08DBB203F00103FB73FB7B1A468021FE
:100630004FF0904002F078FAFB799B08DBB203F0B0
:100640000103FB73FB7B1A464FF480714FF090401F
:1006500002F06AFAFB79DB08DBB203F00103FB73FB
:10066000FB7B1A464FF400714FF0904002F05CFAA9
:10067000FB791B09DBB203F00103FB73FB7B1A461A
:100680004FF480614FF0904002F04EFAFB795B0925
:10069000DBB203F00103FB73FB7B1A464FF40061EE
:1006A0004FF0904002F040FAFB799B09DBB203F077
:1006B0000103FB73FB7B1A464FF480514FF09040CF
:1006C00002F032FAFB79DB09FB73FB7B1A464FF42D
:1006D00000514FF0904002F027FA01224FF4004100
:1006E0004FF0904002F020FA052000F043FD002278
:1006F0004FF400414FF0904002F016FA00BF10375F
:10070000BD4680BD80B584B000AF78600023FB603B
:1007100000210120FFF768FF0AE0FB687A681344B4
:100720001B7801211846FFF75FFFFB680133FB6070
:10073000FB687A6813441B78002BEED100BF00BF22
:100740001037BD4680BD000080B500AF1D4801F0E8
:100750006FF84FF0FF311B4801F024F9194801F000
:10076000F9F903469AB2184B1A80174B1B881A46A0
:10077000C82302FB03F3154A82FB03121A44D21268
:10078000DB17D31A07EE903AF8EEE77A104BC3ED79
:10079000007A4FF47A7000F0EDFC0D4B1B681846A0
:1007A000FFF7CAFE02460B460A490B4803F0EEFC6F
:1007B00003460A4A1360064B1B6807EE903AB0EEF8
:1007C000670A80BD8C000020C403002081000880DF
:1007D000B8010020804A0008C4010020C80300209E
:1007E00080B500AF1D4801F023F84FF0FF311B48E2
:1007F00001F0D8F8194801F0ADF903469AB2184B48
:100800001A80174B1B881A46C82302FB03F3154AAC
:1008100082FB03121A44D212DB17D31A07EE903A66
:10082000F8EEE77A104BC3ED007A4FF47A7000F0DF
:10083000A1FC0D4B1B681846FFF77EFE02460B46D7
:100840000A490B4803F0A2FC03460A4A1360064B10
:100850001B6807EE903AB0EE670A80BDF0000020FA
:10086000C403002081000880BC010020804A0008E9
:10087000C4010020C803002080B500AF1D4800F06F
:10088000D7FF4FF0FF311B4801F08CF8194801F0F9
:1008900061F903469AB2184B1A80174B1B881A4607
:1008A000C82302FB03F3154A82FB03121A44D21237
:1008B000DB17D31A07EE903AF8EEE77A104BC3ED48
:1008C000007A4FF47A7000F055FC0D4B1B68184607
:1008D000FFF732FE02460B460A490B4803F056FC6E
:1008E00003460A4A1360064B1B6807EE903AB0EEC7
:1008F000670A80BD54010020C403002081000880E5
:10090000C0010020804A0008C4010020C803002064
:100910002DE9B043B0B006AFFFF716FF87ED290A07
:10092000FFF75EFF87ED280AFFF7A6FF87ED270A8E
:10093000D7F8A400FFF700FE04460D46D7F8A00044
:10094000FFF7FAFD80468946D7F89C00FFF7F4FDD3
:1009500002460B46381DCDE90423CDE90289CDE9D5
:100960000045084A962103F011FC3B1D1846FFF78D
:10097000C9FE42F2107000F0FDFB00BFA837BD4673
:10098000BDE8B083844A000880B500AF00F07DFB6D
:1009900000F00DF800F051F800F0BEF900F078F822
:1009A00000F0EEF800F052F9FFF7B2FFFCE780B577
:1009B00096B000AF07F1140344220021184603F05B
:1009C000DDFB3B4600221A605A609A60DA601A61C9
:1009D0004FF4007002F0CEF80346002B01D000F077
:1009E000DBF910237B610123FB6200233B6360235F
:1009F0007B630023FB6307F11403184602F010F930
:100A00000346002B01D000F0C7F90F233B60002301
:100A10007B600023BB600023FB6000233B613B46FF
:100A20000021184602F0D8FC0346002B01D000F04C
:100A3000B3F900BF5837BD4680BD80B5A2B000AF46
:100A40003B4688220021184603F098FB4FF4804370
:100A50003B604FF08053BB6701237B600123BB6089
:100A60000823FB6007233B6102237B610223BB61F8
:100A70004FF08073FB613B46184602F099FE034637
:100A8000002B01D000F088F900BF8837BD4680BD3B
:100A900080B58AB000AF07F11C0300221A605A60CB
:100AA0009A603B1D00221A605A609A60DA601A61EF
:100AB0005A612F4B2F4A1A602D4B00225A602C4B43
:100AC00000229A602A4B0022DA60294B00221A6128
:100AD000274B04225A61264B00221A76244B00220F
:100AE0005A76234B0122DA61214B002283F8202021
:100AF0001F4B00229A621E4B0022DA621C4B00221E
:100B000083F830201A4B00225A63194B002283F8D5
:100B10003820174800F036FD0346002B01D000F0C6
:100B20003BF90023FB6107F11C031946104801F053
:100B3000BBFC0346002B01D000F02EF90E4B7B606E
:100B40000623BB600023FB600C4B3B6104237B61ED
:100B50000023BB613B1D1946054801F009F8034617
:100B6000002B01D000F018F900BF2837BD4680BD2A
:100B70008C000020000004500200300400007F4080
:100B800080B586B000AF3B4600221A605A609A607A
:100B9000DA601A615A61294B294A1A60274B0022F0
:100BA0005A60264B00229A60244B0022DA60234BC5
:100BB00000221A61214B04225A61204B00221A762E
:100BC0001E4B00225A761D4B0122DA611B4B00227C
:100BD00083F82020194B00229A62184B0022DA6217
:100BE000164B002283F83020144B00225A63134B1B
:100BF000002283F83820114800F0C4FC0346002B83
:100C000001D000F0C9F80F4B3B6006237B60002346
:100C1000BB600D4BFB6004233B6100237B613B46C3
:100C20001946064800F0A4FF0346002B01D000F04F
:100C3000B3F800BF1837BD4680BD00BFF0000020EC
:100C4000000104500200300400007F4080B586B0EF
:100C500000AF3B4600221A605A609A60DA601A615F
:100C60005A61294B294A1A60274B00225A60264BA9
:100C700000229A60244B0022DA60234B00221A6182
:100C8000214B04225A61204B00221A761E4B01226E
:100C90005A761D4B0122DA611B4B002283F820207B
:100CA000194B00229A62184B0022DA62164B00227E
:100CB00083F83020144B00225A63134B002283F830
:100CC0003820114800F05EFC0346002B01D000F0F4
:100CD00063F80F4B3B6006237B600023BB600D4B2A
:100CE000FB6004233B6100237B613B4619460648B9
:100CF00000F03EFF0346002B01D000F04DF800BF8E
:100D00001837BD4680BD00BF5401002000020450CA
:100D10000200300400007F4080B588B000AF07F1CA
:100D20000C0300221A605A609A60DA601A61194B4B
:100D3000DB6C184A43F00403D364164BDB6C03F0FE
:100D40000403BB60BB68134BDB6C124A43F0010326
:100D5000D364104BDB6C03F001037B607B680022E3
:100D600041F67F714FF0904001F0DEFE41F67F7357
:100D7000FB6001233B6100237B610023BB6107F122
:100D80000C0319464FF0904001F024FD00BF2037BE
:100D9000BD4680BD0010024080B400AF72B600BFF7
:100DA000FEE7000080B483B000AF0F4B1B6E0E4A0D
:100DB00043F0010313660C4B1B6E03F001037B60D1
:100DC0007B68094B9B6D084A43F080539365064B43
:100DD0009B6D03F080533B603B6800BF0C37BD4602
:100DE0005DF8047B704700BF0010024080B58EB0F4
:100DF00000AF786007F1240300221A605A609A60FD
:100E0000DA601A617B681B684C4A93422DD14C4BC7
:100E10001B6801334A4A1360494B1B68012B0BD1F5
:100E2000484BDB6C474A43F40053D364454BDB6CBF
:100E300003F400533B623B6A424BDB6C414A43F094
:100E40000403D3643F4BDB6C03F00403FB61FB69D9
:100E500003237B620B23BB620023FB6207F12403A5
:100E60001946394801F0B6FC64E07B681B68374AD4
:100E700093422DD1324B1B680133314A1360304B02
:100E80001B68012B0BD12F4BDB6C2E4A43F4005314
:100E9000D3642C4BDB6C03F40053BB61BB69294B5F
:100EA000DB6C284A43F00403D364264BDB6C03F06D
:100EB00004037B617B6903237B620B23BB620023FA
:100EC000FB6207F1240319461F4801F083FC31E05F
:100ED0007B681B681E4A93422CD1194B1B68013357
:100EE000174A1360164B1B68012B0BD1154BDB6C9B
:100EF000144A43F40053D364124BDB6C03F40053E5
:100F00003B613B690F4BDB6C0E4A43F00403D36437
:100F10000C4BDB6C03F00403FB60FB6807237B6274
:100F20000B23BB620023FB6207F12403194606482A
:100F300001F050FC00BF3837BD4680BD00000450B2
:100F4000CC030020001002400008004800010450BB
:100F50000002045080B400AFFEE780B400AFFEE7AB
:100F600080B400AFFEE780B400AFFEE780B400AF0E
:100F7000FEE780B400AF00BFBD465DF8047B70475C
:100F800080B400AF00BFBD465DF8047B704780B4FD
:100F900000AF00BFBD465DF8047B704780B500AF71
:100FA00000F0C8F800BF80BD80B586B000AF7860A3
:100FB000144A154BD31A7B617B693B61134B1B6849
:100FC000002B02D1114B124A1A60104B1A687B6831
:100FD00013443A699A4207D203F0A6F803460C225A
:100FE0001A604FF0FF3309E0084B1B68FB60074BAA
:100FF0001A687B681344054A1360FB681846183763
:10100000BD4680BD0080012000040000D003002008
:10101000E803002080B400AF064BD3F88830054ABF
:1010200043F47003C2F8883000BFBD465DF8047B0E
:10103000704700BF00ED00E0DFF834D0FFF7EAFFB3
:101040000C480D490D4A002302E0D458C450043323
:10105000C4188C42F9D30A4A0A4C002301E01360F9
:101060000432A242FBD303F065F8FFF78DFCFEE7E4
:10107000008001200000002070000020284B0008A4
:1010800070000020E8030020FEE780B582B000AFCA
:101090000023FB71032001F069FB0F2000F00EF824
:1010A0000346002B02D00123FB7101E0FFF77AFE1B
:1010B000FB7918460837BD4680BD000080B584B076
:1010C00000AF78600023FB73174B1B78002B23D0F5
:1010D000164B1A68144B1B7819464FF47A73B3FBFE
:1010E000F1F3B2FBF3F3184601F067FB0346002B64
:1010F0000FD17B680F2B09D8002279684FF0FF30A1
:1011000001F03FFB0A4A7B68136007E00123FB7391
:1011100004E00123FB7301E00123FB73FB7B184612
:101120001037BD4680BD00BF080000200000002031
:101130000400002080B400AF064B1B781A46064B13
:101140001B681344044A136000BFBD465DF8047B6E
:10115000704700BF08000020D403002080B400AF17
:10116000034B1B681846BD465DF8047B704700BF03
:10117000D403002080B584B000AF7860FFF7EEFFA5
:10118000B8607B68FB60FB68B3F1FF3F05D00A4B9A
:101190001B781A46FB681344FB6000BFFFF7DEFFB5
:1011A0000246BB68D31AFA689A42F7D800BF00BF5C
:1011B0001037BD4680BD00BF0800002080B483B05A
:1011C00000AF786039607B689B6823F47C123B68D1
:1011D0001A437B689A6000BF0C37BD465DF8047BFC
:1011E000704780B483B000AF786039607B689B68DB
:1011F00023F0E0723B681A437B689A6000BF0C37AB
:10120000BD465DF8047B704780B483B000AF786062
:101210007B689B6803F0E07318460C37BD465DF8A9
:10122000047B704780B487B000AFF860B9607A6023
:101230003B60FB6860331A46BB689B0013447B61CC
:101240007B691A68084B13407A6802F0F8413A68E3
:101250000A43134343F000427B691A6000BF1C3706
:10126000BD465DF8047B704700F0FF0380B485B095
:1012700000AF786039607B6860331A463B689B003A
:101280001344FB60FB681B6803F0F84318461437EF
:10129000BD465DF8047B704780B487B000AFF8604E
:1012A000B9607A60FB6860331A46BB689B001344E0
:1012B0007B617B691B6823F000427B681A437B6972
:1012C0001A6000BF1C37BD465DF8047B704780B4D0
:1012D00083B000AF78607B68DB6803F44063002B69
:1012E00001D1012300E0002318460C37BD465DF80C
:1012F000047B704780B487B000AFF860B9607A6053
:10130000FB6830331A46BB681B0A9B0003F00C03D2
:1013100013447B617B691A68BB6803F01F031F21BC
:1013200001FA03F3DB431A407B689B0E03F01F01B5
:10133000BB6803F01F0301FA03F31A437B691A60C9
:1013400000BF1C37BD465DF8047B704780B487B092
:1013500000AFF860B9607A60FB6814331A46BB6866
:101360005B0E9B0003F0040313447B617B691A68E6
:10137000BB681B0D03F01F03072101FA03F3DB43D6
:101380001A40BB681B0D03F01F03796801FA03F3D1
:101390001A437B691A6000BF1C37BD465DF8047BA9
:1013A0007047000080B485B000AFF860B9607A6023
:1013B000FB68D3F8B020BB68C3F31203DB431A40C9
:1013C0007B6803F018030849D940BB680B40C3F39E
:1013D00012031A43FB68C3F8B02000BF1437BD46A0
:1013E0005DF8047B704700BFFFFF070080B483B047
:1013F00000AF78607B689B6803F01F0318460C37CA
:10140000BD465DF8047B704780B483B000AF786060
:101410007B689B6803F4604318460C37BD465DF853
:10142000047B704780B483B000AF78607B689B68B2
:1014300023F0204323F03F037A68936000BF0C370A
:10144000BD465DF8047B704780B483B000AF786020
:101450007B689B6803F00053B3F1005F01D1012367
:1014600000E0002318460C37BD465DF8047B70474A
:1014700080B483B000AF78607B689B6823F0104332
:1014800023F03F0343F080527B689A6000BF0C3723
:10149000BD465DF8047B704780B483B000AF7860D0
:1014A0007B689B6803F08053B3F1805F01D1012317
:1014B00000E0002318460C37BD465DF8047B7047FA
:1014C00080B483B000AF78607B689B6823F00043F2
:1014D00023F03F0343F001027B689A6000BF0C37A2
:1014E000BD465DF8047B704780B483B000AF786080
:1014F0007B689B6803F00103012B01D1012300E00D
:10150000002318460C37BD465DF8047B704780B455
:1015100083B000AF78607B689B6823F0004323F0C2
:101520003F0343F004027B689A6000BF0C37BD465E
:101530005DF8047B704780B483B000AF78607B684F
:101540009B6803F00403042B01D1012300E0002376
:1015500018460C37BD465DF8047B704780B483B0F5
:1015600000AF78607B689B6803F00803082B01D10B
:10157000012300E0002318460C37BD465DF8047BCC
:101580007047000090B589B000AF78600023FB770A
:101590000023BB607B68002B01D1012336E17B680F
:1015A0001B69002B7B685B6D002B09D17868FFF706
:1015B0001DFC7B6800229A657B68002283F850201E
:1015C0007B681B681846FFF73FFF0346002B04D0DB
:1015D0007B681B681846FFF725FF7B681B68184669
:1015E000FFF75AFF0346002B15D17B681B6818468E
:1015F000FFF73EFF874B1B689B09874AA2FB03232B
:101600009B0901335B00BB6002E0BB68013BBB6030
:10161000BB68002BF9D17B681B681846FFF73CFFBD
:101620000346002B0DD17B685B6D43F010027B6895
:101630005A657B689B6D43F001027B689A650123C4
:10164000FB777B681B681846FFF775FF78617B683E
:101650005B6D03F01003002B40F0CF807B69002B03
:1016600040F0CB807B685B6D23F4817343F0020212
:101670007B685A657B681B681846FFF735FF034691
:10168000002B15D16548FFF72FFF04466448FFF78C
:101690002BFF03461C436348FFF726FF0346234303
:1016A000002B05D17B685B6819465F48FFF786FD14
:1016B0007B685B7E5A037B685B6B1A437B68DB68E5
:1016C0001A437B689B681A437B6893F820301B049D
:1016D0001343BB617B6893F82030012B06D17B68F4
:1016E0005B6A013B5B04BA691343BB617B689B6A1D
:1016F000002B09D07B689B6A03F470727B68DB6AFD
:101700001343BA691343BB617B681B68DA68474BB4
:1017100013407A681268B9690B43D3607B681B6811
:101720001846FFF708FF38617B681B681846FFF70B
:1017300015FFF8603B69002B3DD1FB68002B3AD1C7
:101740007B681B7E9A037B6893F830305B00134301
:10175000BB617B681B68DB6823F4804323F00203D2
:101760007A681268B9690B43D3607B6893F83830A4
:10177000012B18D17B681B681B6923F4FF6323F0DE
:1017800004037A68D16B7A68126C11437A68526CE0
:1017900011437A68926C0A431A437B681B6842F0D3
:1017A00001021A6107E07B681B681A697B681B6885
:1017B00022F001021A617B681B69012B0CD17B6846
:1017C0001B681B6B23F00F017B68DB695A1E7B686B
:1017D0001B680A431A6307E07B681B681A6B7B6807
:1017E0001B6822F00F021A637B685B6D23F0030312
:1017F00043F001027B685A6507E07B685B6D43F04C
:1018000010027B685A650123FB77FB7F184624375B
:10181000BD4690BD00000020632D3E050000045031
:1018200000010450000204500003045007C0F0FF00
:1018300080B586B000AF78605748FFF7D7FD3861B4
:101840007B681B681846FFF776FE0346002B40F0C6
:101850009C807B6893F85030012B01D1022397E0E4
:101860007B68012283F85020786800F071FD034600
:10187000FB75FB7D002B40F083807B685B6D23F460
:10188000706323F0010343F480727B685A657B68C0
:101890001B68424A934202D07B681B6800E0404BC1
:1018A0007A681268934202D03B69002B05D17B68AD
:1018B0005B6D23F480127B685A657B685B6D03F473
:1018C0008053B3F5805F06D17B689B6D23F00602E1
:1018D0007B689A6502E07B6800229A657B681B68DA
:1018E0001C221A607B68002283F850207B681B68EA
:1018F0002A4A934202D07B681B6800E0284B7A6832
:101900001268934208D03B69002B05D03B69052B38
:1019100002D03B69092B14D17B681B68DB6803F09C
:101920000073002B07D07B685B6D23F4405343F4B6
:1019300080527B685A657B681B681846FFF7E7FD95
:1019400025E07B685B6D43F480127B685A657B6899
:101950001B68124A934202D07B681B6800E0104B60
:10196000FB60FB68DB6803F00073002B0FD07B6823
:101970005B6D23F4405343F480527B685A6506E064
:101980007B68002283F8502001E00223FB75FB7D79
:1019900018461837BD4680BD0003045000010450AE
:1019A0000000045080B588B000AF786039606648A8
:1019B000FFF71CFD78617B685B69082B02D1082367
:1019C000FB612AE07B69002B05D07B69052B02D0E7
:1019D0007B69092B11D17B681B68DB6803F001036D
:1019E000002B07D07B685B6D43F020027B685A6553
:1019F0000123A4E00423FB610FE05348FFF704FD3B
:101A00000346002B07D07B685B6D43F020027B68A8
:101A10005A65012393E00423FB61FFF79FFB3861C4
:101A200021E03B68B3F1FF3F1DD0FFF797FB024673
:101A30003B69D31A3A689A4202D33B68002B12D111
:101A40007B681B681A68FB691340002B0BD17B680D
:101A50005B6D43F004027B685A657B68002283F863
:101A6000502003236BE07B681B681A68FB691340F6
:101A7000002BD6D07B685B6D43F400727B685A659F
:101A80007B681B681846FFF722FC0346002B1CD01E
:101A90007B685B7E002B18D17B681B681B6803F09A
:101AA0000803082B11D17B685B6D23F480727B687F
:101AB0005A657B685B6D03F48053002B05D17B680E
:101AC0005B6D43F001027B685A657B681B681F4AA7
:101AD000934202D07B681B6800E01D4B7A68126855
:101AE000934208D07B69002B05D07B69052B02D07F
:101AF0007B69092B04D17B681B68DB68BB610CE048
:101B00007B681B68114A934202D07B681B6800E027
:101B10000F4BFB60FB68DB68BB61FB69082B04D1E2
:101B20007B681B6808221A6008E0BB6903F48043E5
:101B3000002B03D17B681B680C221A600023184617
:101B40002037BD4680BD00BF000304500001045093
:101B50000000045080B483B000AF78607B681B68DD
:101B60001B6C18460C37BD465DF8047B70470000BF
:101B700080B5B6B000AF78603960002387F8D73001
:101B80000023FB607B6893F85030012B01D10223C6
:101B9000C7E37B68012283F850207B681B681846E6
:101BA000FFF7C9FC0346002B40F0A8833B685B6845
:101BB000052B24D83B685B68023B032B1BD801A292
:101BC00052F823F0D51B0008DD1B0008E51B0008B8
:101BD000ED1B00083B680C225A6011E03B681222A2
:101BE0005A600DE03B6818225A6009E03B684FF4E8
:101BF00080725A6004E03B6806225A6000E000BF31
:101C00007B6818683B6859683B681B681A46FFF791
:101C100071FB7B681B681846FFF78DFCC7F8D00086
:101C20007B681B681846FFF799FCC7F8CC00D7F80B
:101C3000D030002B40F0A681D7F8CC30002B40F0FC
:101C4000A1817B6818683B6819683B689B681A46E5
:101C5000FFF77CFB3B685A697B681B68DB68DB0825
:101C600003F003035B0002FA03F3C7F8C8303B68D4
:101C70001B69042B0AD07B6818683B6819693B68AC
:101C80001A68D7F8C830FFF7CDFA7BE17B681B688C
:101C900000211846FFF7EAFA0346C3F31203002BAC
:101CA0000AD17B681B6800211846FFF7DFFA03465C
:101CB0009B0E03F01F021EE07B681B680021184684
:101CC000FFF7D4FA0346C7F8BC30D7F8BC3093FA14
:101CD000A3F3C7F8B830D7F8B830C7F8C030D7F892
:101CE000C030002B01D1202304E0D7F8C030B3FA74
:101CF00083F3DBB21A463B681B68C3F31203002B65
:101D000005D13B681B689B0E03F01F0318E03B687E
:101D10001B68C7F8B030D7F8B03093FAA3F3C7F810
:101D2000AC30D7F8AC30C7F8B430D7F8B430002BAB
:101D300001D1202304E0D7F8B430B3FA83F3DBB247
:101D40009A4206D17B681B68002200211846FFF7E3
:101D5000A3FA7B681B6801211846FFF787FA034640
:101D6000C3F31203002B0AD17B681B6801211846BC
:101D7000FFF77CFA03469B0E03F01F021EE07B6810
:101D80001B6801211846FFF771FA0346C7F8A43013
:101D9000D7F8A43093FAA3F3C7F8A030D7F8A0304F
:101DA000C7F8A830D7F8A830002B01D1202304E0D1
:101DB000D7F8A830B3FA83F3DBB21A463B681B6846
:101DC000C3F31203002B05D13B681B689B0E03F085
:101DD0001F0318E03B681B68C7F89830D7F89830A5
:101DE00093FAA3F3C7F89430D7F89430C7F89C302F
:101DF000D7F89C30002B01D1202304E0D7F89C3089
:101E0000B3FA83F3DBB29A4206D17B681B680022E7
:101E100001211846FFF740FA7B681B68022118462B
:101E2000FFF724FA0346C3F31203002B0AD17B68A1
:101E30001B6802211846FFF719FA03469B0E03F0B0
:101E40001F021EE07B681B6802211846FFF70EFA8E
:101E50000346C7F88C30D7F88C3093FAA3F3C7F851
:101E60008830D7F88830C7F89030D7F89030002BFA
:101E700001D1202304E0D7F89030B3FA83F3DBB22A
:101E80001A463B681B68C3F31203002B05D13B685D
:101E90001B689B0E03F01F0316E03B681B68C7F826
:101EA0008030D7F8803093FAA3F3FB67FB6FC7F855
:101EB0008430D7F88430002B01D1202304E0D7F8F8
:101EC0008430B3FA83F3DBB29A4206D17B681B6895
:101ED000002202211846FFF7DFF97B681B68032107
:101EE0001846FFF7C3F90346C3F31203002B0AD1C8
:101EF0007B681B6803211846FFF7B8F903469B0E61
:101F000003F01F0217E07B681B6803211846FFF7E8
:101F1000ADF903467B677B6F93FAA3F33B673B6F97
:101F2000BB67BB6F002B01D1202303E0BB6FB3FA6B
:101F300083F3DBB21A463B681B68C3F31203002B22
:101F400005D13B681B689B0E03F01F0311E03B6843
:101F50001B68BB66BB6E93FAA3F37B667B6EFB6666
:101F6000FB6E002B01D1202303E0FB6EB3FA83F359
:101F7000DBB29A4206D17B681B6800220321184617
:101F8000FFF78AF97B681B681846FFF7ADFA03462E
:101F9000002B40F03F817B6818683B6819683B68FC
:101FA000DB681A46FFF7FEF93B68DB688E4A93420E
:101FB00040F030817B6818683B681B68C3F31203EC
:101FC000002B0BD13B681B689B0E013303F01F03F2
:101FD000092B94BF01230023DBB219E03B681B6887
:101FE000FB65FB6D93FAA3F3BB65BB6D3B663B6E74
:101FF000002B01D1202303E03B6EB3FA83F3DBB265
:10200000013303F01F03092B94BF01230023DBB22C
:10201000002B79D03B681B68C3F31203002B07D158
:102020003B681B689B0E01339B0603F0F84215E0EA
:102030003B681B683B653B6D93FAA3F3FB64FB6C49
:102040007B657B6D002B01D1202303E07B6DB3FA10
:1020500083F3DBB201339B0603F0F8423B681B6855
:10206000C3F31203002B09D13B681B689B0E01339D
:1020700003F01F03012101FA03F317E03B681B681B
:102080007B647B6C93FAA3F33B643B6CBB64BB6CDB
:10209000002B01D1202303E0BB6CB3FA83F3DBB246
:1020A000013303F01F03012101FA03F342EA0301A4
:1020B0003B681B68C3F31203002B0AD13B681B6803
:1020C0009B0E013303F01F0213465B0013441B05F4
:1020D00018E03B681B68BB63BB6B93FAA3F37B639D
:1020E0007B6BFB63FB6B002B01D1202303E0FB6BBD
:1020F000B3FA83F3DBB2013303F01F0213465B0034
:1021000013441B050B4380E03B681B68C3F31203B9
:10211000002B07D13B681B689B0E01339B0603F025
:10212000F84215E03B681B68FB62FB6A93FAA3F375
:10213000BB62BB6A3B633B6B002B01D1202303E0F6
:102140003B6BB3FA83F3DBB201339B0603F0F84237
:102150003B681B68C3F31203002B09D13B681B6863
:102160009B0E013303F01F03012101FA03F317E073
:102170003B681B683B623B6A93FAA3F3FB61FB6914
:102180007B627B6A002B01D1202303E07B6AB3FAD8
:1021900083F3DBB2013303F01F03012101FA03F3E0
:1021A00042EA03013B681B68C3F31203002B0DD105
:1021B0003B681B689B0E013303F01F0213465B0054
:1021C00013441E3B1B0543F000731DE03B681B6876
:1021D0007B617B6993FAA3F33B613B69BB61BB699C
:1021E000002B03D1202305E000007F40BB69B3FA38
:1021F00083F3DBB2013303F01F0213465B00134489
:102200001E3B1B0543F000730B433A689268194666
:10221000FFF79CF83B681A68444B1340002B7AD0B8
:102220004348FEF7F1FFC7F8C4003B681B68414A0A
:1022300093422CD1D7F8C43003F40003002B26D1ED
:102240007B681B683C4A934204D07B681B683B4A0E
:1022500093425DD1D7F8C43043F4000319463448A3
:10226000FEF7BFFF364B1B689B09364AA2FB0323D0
:102270009B095A1C13465B0013449B00FB6002E061
:10228000FB68013BFB60FB68002BF9D140E03B6839
:102290001B682D4A934218D1D7F8C43003F08073DD
:1022A000002B12D17B681B68234A934204D07B68C1
:1022B0001B68224A93422DD1D7F8C43043F0807373
:1022C00019461B48FEF78DFF24E03B681B681F4A38
:1022D000934220D1D7F8C43003F48003002B1AD1E5
:1022E0007B681B68144A934215D1D7F8C43043F475
:1022F000800319460E48FEF774FF0CE07B685B6DA7
:1023000043F020027B685A65012387F8D73002E04A
:1023100000BF00E000BF7B68002283F8502097F8E0
:10232000D7301846D837BD4680BD00BF00000880B2
:1023300000030450000052C7000004500002045083
:1023400000000020632D3E05000084CB01000080CA
:1023500080B584B000AF78600023BB607B681B68E9
:102360001846FFF7C1F80346002B69D17B681B684C
:102370009A68364B1340002B0DD07B685B6D43F0A1
:1023800010027B685A657B689B6D43F001027B6895
:102390009A65012355E07B681B681846FFF790F8A3
:1023A0002B48FEF731FF034603F40003002B13D044
:1023B000284B1B689B09284AA2FB03239B095A1C34
:1023C00013465B0013449B00BB6002E0BB68013B0B
:1023D000BB60BB68002BF9D1FEF7C0FEF86028E0B7
:1023E0007B681B681846FFF77FF80346002B04D173
:1023F0007B681B681846FFF763F8FEF7AFFE0246DE
:10240000FB68D31A022B14D97B681B681B6803F086
:102410000103012B0DD07B685B6D43F010027B68DC
:102420005A657B689B6D43F001027B689A650123C6
:1024300007E07B681B681B6803F00103012BCFD109
:10244000002318461037BD4680BD00BF3F00008006
:102450000003045000000020632D3E0580B483B0CB
:1024600000AF78607B689B6803F00103012B01D10A
:10247000012300E0002318460C37BD465DF8047BBD
:10248000704780B483B000AF78607B689B6803F0CE
:102490000403042B01D1012300E0002318460C376C
:1024A000BD465DF8047B704790B59FB000AF786083
:1024B0003960002387F877307B6893F85030012B20
:1024C00001D1022393E07B68012283F8502000238E
:1024D000FB6500233B667B681B68474A934202D139
:1024E000464BBB6001E00023BB60BB68002B0BD1F7
:1024F0007B685B6D43F020027B685A657B68002235
:1025000083F85020012372E0BB681846FFF7B9FF3B
:1025100038677B681B681846FFF7B3FF0346002B3C
:1025200054D13B6F002B51D1354BFB663B681B6888
:10253000002B2CD0FB6E9B6823F460423B685968EB
:102540007B6893F830305B030B431A43FB6E9A6051
:102550002948FFF783FF04462848FFF77FFF03461B
:102560001C432848FFF77AFF03462343002B37D14B
:10257000FB6E9B6823F4716323F00F033A681168C4
:102580003A6892680A431A43FB6E9A6028E0FB6E31
:102590009B6823F46042FB6E9A601748FFF75EFF6A
:1025A00004461648FFF75AFF03461C431548FFF739
:1025B00055FF03462343002B12D1FB6E9B6823F487
:1025C000716323F00F03FA6E936009E07B685B6D23
:1025D00043F020027B685A65012387F8773000E0DA
:1025E00000BF7B68002283F8502097F877301846A8
:1025F0007C37BD4690BD00BF000004500001045070
:10260000000304500002045080B485B000AF78602D
:102610007B6803F00703FB600C4BDB68BB60BA68A8
:102620004FF6FF031340BB60FB681A02BB681343FD
:1026300043F0BF6343F40033BB60044ABB68D3601C
:1026400000BF1437BD465DF8047B704700ED00E025
:1026500080B400AF044BDB681B0A03F00703184685
:10266000BD465DF8047B704700ED00E080B483B0A8
:1026700000AF03463960FB7197F90730002B0ADB86
:102680003B68DAB20C4997F907301201D2B20B4419
:1026900083F800230AE03B68DAB20849FB7903F0CB
:1026A0000F03043B1201D2B20B441A7600BF0C3761
:1026B000BD465DF8047B704700E100E000ED00E0FE
:1026C00080B489B000AFF860B9607A60FB6803F04D
:1026D0000703FB61FB69C3F10703042B28BF042335
:1026E000BB61FB690433062B02D9FB69033B00E0A5
:1026F00000237B614FF0FF32BB6902FA03F3DA4338
:10270000BB681A407B699A404FF0FF317B6901FA40
:1027100003F3D9437B680B40134318462437BD4667
:102720005DF8047B7047000080B582B000AF786030
:102730007B68013BB3F1807F01D301230FE00A4A9C
:102740007B68013B53600F214FF0FF30FFF78EFF96
:10275000054B00229A60044B07221A60002318469A
:102760000837BD4680BD00BF10E000E080B582B0F4
:1027700000AF78607868FFF747FF00BF0837BD46B5
:1027800080BD80B586B000AF0346B9607A60FB7348
:1027900000237B61FFF75CFF78617A68B96878692C
:1027A000FFF78EFF024697F90F3011461846FFF7E4
:1027B0005DFF00BF1837BD4680BD80B582B000AF59
:1027C00078607868FFF7B0FF034618460837BD46C3
:1027D00080BD000080B487B000AF7860396000230E
:1027E0007B617FE13B681A6801217B6901FA03F391
:1027F0001340FB60FB68002B00F071813B685B6855
:1028000003F00303012B05D03B685B6803F003036F
:10281000022B30D17B689B683B617B695B000322A4
:1028200002FA03F3DB433A6913403B613B68DA6821
:102830007B695B0002FA03F33A6913433B617B68EF
:102840003A699A607B685B683B6101227B6902FAA6
:1028500003F3DB433A6913403B613B685B681B0948
:1028600003F001027B6902FA03F33A6913433B6107
:102870007B683A695A603B685B6803F00303032B8B
:1028800018D17B68DB6A3B6101227B6902FA03F3A2
:10289000DB433A6913403B613B685B68DB0803F04C
:1028A00001027B6902FA03F33A6913433B617B68D7
:1028B0003A69DA623B685B6803F00303032B17D0C5
:1028C0007B68DB683B617B695B00032202FA03F3F0
:1028D000DB433A6913403B613B689A687B695B0064
:1028E00002FA03F33A6913433B617B683A69DA60A1
:1028F0003B685B6803F00303022B23D17B69DA0892
:102900007B68083253F822303B617B6903F0070390
:102910009B000F2202FA03F3DB433A6913403B6149
:102920003B681A697B6903F007039B0002FA03F313
:102930003A6913433B617B69DA087B68083239697D
:1029400043F822107B681B683B617B695B000322B4
:1029500002FA03F3DB433A6913403B613B685B686F
:1029600003F003027B695B0002FA03F33A69134345
:102970003B617B683A691A603B685B6803F44033EB
:10298000002B00F0AC805F4B1B6E5E4A43F00103EE
:1029900013665C4B1B6E03F00103BB60BB685A4AB5
:1029A0007B699B08023352F823303B617B6903F05B
:1029B00003039B000F2202FA03F3DB433A6913403F
:1029C0003B617B68B3F1904F25D07B684F4A9342BF
:1029D0001FD07B684E4A934219D07B684D4A934280
:1029E00013D07B684C4A93420DD07B684B4A93428C
:1029F00007D07B684A4A934201D106230CE00723A3
:102A00000AE0052308E0042306E0032304E0022390
:102A100002E0012300E000237A6902F00302920041
:102A200093403A6913433B6137497B699B08023302
:102A30003A6941F823203B4B9B683B61FB68DB43D1
:102A40003A6913403B613B685B6803F48013002BD9
:102A500003D03A69FB6813433B61324A3B69936098
:102A6000304BDB683B61FB68DB433A6913403B61F9
:102A70003B685B6803F40013002B03D03A69FB68E2
:102A800013433B61274A3B69D360264B5B683B613C
:102A9000FB68DB433A6913403B613B685B6803F4C6
:102AA0000033002B03D03A69FB6813433B611D4A96
:102AB0003B6953601B4B1B683B61FB68DB433A6916
:102AC00013403B613B685B6803F48033002B03D009
:102AD0003A69FB6813433B61124A3B6913607B69A7
:102AE00001337B613B681A687B6922FA03F3002B90
:102AF0007FF478AE00BF00BF1C37BD465DF8047B95
:102B0000704700BF00100240000001400004004870
:102B100000080048000C004800100048001400485D
:102B2000001800480004014080B483B000AF786012
:102B30000B467B8013467B707B78002B03D07A8812
:102B40007B689A6102E07A887B689A6200BF0C37E2
:102B5000BD465DF8047B704780B400AF044B1B6832
:102B600003F4C0631846BD465DF8047B704700BFA0
:102B70000070004080B485B000AF78607B68B3F52A
:102B8000007F30D1234B1B6803F4C063B3F5007F93
:102B900038D0204B1B6823F4C0631E4A43F40073F3
:102BA00013601D4B1B68322202FB03F31B4AA2FB7E
:102BB00003239B0C0133FB6002E0FB68013BFB60DD
:102BC000144B5B6903F48063B3F5806F02D1FB683B
:102BD000002BF2D10F4B5B6903F48063B3F5806F78
:102BE00010D103230FE00B4B1B6803F4C063B3F554
:102BF000806F07D0074B1B6823F4C063054A43F47A
:102C000080631360002318461437BD465DF8047BCB
:102C1000704700BF007000400000002083DE1B43AF
:102C200080B588B000AF78607B68002B01D10123AC
:102C3000CAE3974B9B6803F00C03BB61944BDB68C2
:102C400003F003037B617B681B6803F01003002B18
:102C500000F0E480BB69002B07D0BB690C2B40F06F
:102C60008B807B69012B40F08780894B1B6803F0C8
:102C70000203002B05D07B689B69002B01D1012347
:102C8000A2E37B681A6A824B1B6803F00803002BDF
:102C900004D07F4B1B6803F0F00305E07C4BD3F8B6
:102CA00094301B0903F0F003934223D27B681B6A24
:102CB000184600F01DFD0346002B01D0012383E3DD
:102CC000734B1B68724A43F008031360704B1B6818
:102CD00023F0F0027B681B6A6D4913430B606C4B59
:102CE0005B6823F47F427B68DB691B0268491343FE
:102CF0004B6025E0664B1B68654A43F00803136090
:102D0000634B1B6823F0F0027B681B6A6049134326
:102D10000B605F4B5B6823F47F427B68DB691B02BF
:102D20005B4913434B60BB69002B09D17B681B6A6D
:102D3000184600F0DDFC0346002B01D0012343E3DD
:102D400000F04AFC0246524B9B681B0903F00F033C
:102D50005049CB5C03F01F0322FA03F34E4A136081
:102D60004E4B1B681846FEF7A9F90346FB73FB7B25
:102D7000002B52D0FB7B27E37B689B69002B32D072
:102D8000434B1B68424A43F001031360FEF7E6F928
:102D9000386108E0FEF7E2F902463B69D31A022BDC
:102DA00001D9032310E33A4B1B6803F00203002B05
:102DB000F0D0374B1B68364A43F008031360344B9E
:102DC0001B6823F0F0027B681B6A314913430B60D8
:102DD0002F4B5B6823F47F427B68DB691B022C4925
:102DE00013434B601AE02A4B1B68294A23F0010366
:102DF0001360FEF7B3F9386108E0FEF7AFF9024659
:102E00003B69D31A022B01D90323DDE2204B1B6857
:102E100003F00203002BF0D100E000BF7B681B68C9
:102E200003F00103002B74D0BB69082B05D0BB69EC
:102E30000C2B0ED17B69032B0BD1154B1B6803F4B4
:102E40000033002B64D07B685B68002B60D10123CA
:102E5000BAE27B685B68B3F5803F06D10C4B1B6818
:102E60000B4A43F48033136026E07B685B68B3F55C
:102E7000A02F15D1064B1B68054A43F4802313602D
:102E8000034B1B68024A43F48033136014E000BF15
:102E900000100240AC4A000800000020040000209E
:102EA000A04B1B689F4A23F4803313609D4B1B6823
:102EB0009C4A23F4802313607B685B68002B13D04B
:102EC000FEF74CF9386108E0FEF748F902463B6925
:102ED000D31A642B01D9032376E2924B1B6803F4C7
:102EE0000033002BF0D014E0FEF738F9386108E029
:102EF000FEF734F902463B69D31A642B01D9032348
:102F000062E2884B1B6803F40033002BF0D100E031
:102F100000BF7B681B6803F00203002B60D0BB6915
:102F2000042B05D0BB690C2B19D17B69022B16D160
:102F30007C4B1B6803F48063002B05D07B68DB6847
:102F4000002B01D101233FE2764B5B6823F0F8525E
:102F50007B681B691B06734913434B6040E07B6829
:102F6000DB68002B23D06F4B1B686E4A43F48073E1
:102F70001360FEF7F3F8386108E0FEF7EFF8024659
:102F80003B69D31A022B01D903231DE2654B1B6851
:102F900003F48063002BF0D0624B5B6823F0F8529F
:102FA0007B681B691B065F4913434B6018E05D4B50
:102FB0001B685C4A23F480731360FEF7CFF8386116
:102FC00008E0FEF7CBF802463B69D31A022B01D981
:102FD0000323F9E1534B1B6803F48063002BF0D10A
:102FE0007B681B6803F00803002B3CD07B685B699F
:102FF000002B1CD04B4BD3F894304A4A43F00103CA
:10300000C2F89430FEF7AAF8386108E0FEF7A6F897
:1030100002463B69D31A022B01D90323D4E1414B69
:10302000D3F8943003F00203002BEFD01BE03D4BAC
:10303000D3F894303B4A23F00103C2F89430FEF7F2
:103040008DF8386108E0FEF789F802463B69D31A2B
:10305000022B01D90323B7E1324BD3F8943003F0AC
:103060000203002BEFD17B681B6803F00403002BE5
:1030700000F0A6800023FB772A4B9B6D03F0805362
:10308000002B0DD1274B9B6D264A43F0805393654F
:10309000244B9B6D03F08053BB60BB680123FB771F
:1030A000214B1B6803F48073002B18D11E4B1B6847
:1030B0001D4A43F480731360FEF750F8386108E04E
:1030C000FEF74CF802463B69D31A022B01D90323C1
:1030D0007AE1154B1B6803F48073002BF0D07B68FA
:1030E0009B68012B08D10F4BD3F890300D4A43F069
:1030F0000103C2F8903029E07B689B68052B15D14D
:10310000084BD3F89030074A43F00403C2F89030DC
:10311000044BD3F89030034A43F00103C2F89030D7
:1031200014E000BF00100240007000409C4BD3F838
:1031300090309B4A23F00103C2F89030984BD3F8AB
:103140009030974A23F00403C2F890307B689B6864
:10315000002B16D0FEF702F838610AE0FDF7FEFFFB
:1031600002463B69D31A41F28832934201D90323C4
:103170002AE18B4BD3F8903003F00203002BEDD003
:1031800015E0FDF7EBFF38610AE0FDF7E7FF0246C7
:103190003B69D31A41F28832934201D9032313E1E8
:1031A0007F4BD3F8903003F00203002BEDD1FB7F6F
:1031B000012B05D17A4B9B6D794A23F0805393659F
:1031C0007B689B6A002B00F0FE807B689B6A022B69
:1031D00040F0D080724BDB687B617B6903F00302B7
:1031E0007B68DB6A9A4230D17B6903F070027B68AE
:1031F0001B6B013B1B019A4227D17B6903F4FE4202
:103200007B685B6B1B029A421FD17B6903F400331E
:103210007A68926B072A14BF01220022D2B293422D
:1032200013D17B6903F4C0027B68DB6B5B08013B55
:103230005B059A4209D17B6903F0C0627B681B6C15
:103240005B08013B5B069A426ED0BB690C2B69D0D0
:10325000534B1B6803F08063002B05D1504B1B6858
:1032600003F08053002B01D00123ADE04C4B1B68D1
:103270004B4A23F080731360FDF770FF386108E05C
:10328000FDF76CFF02463B69D31A022B01D90323D9
:103290009AE0434B1B6803F00073002BF0D1404BC6
:1032A000DA68404B13407A68D16A7A68126B013A47
:1032B000120111437A68526B120211437A68D26B81
:1032C0005208013A520511437A68126C5208013AC9
:1032D000520611437A68926B120952040A4330492C
:1032E0001343CB602E4B1B682D4A43F08073136051
:1032F0002B4BDB682A4A43F08073D360FDF72EFF27
:10330000386108E0FDF72AFF02463B69D31A022B19
:1033100001D9032358E0224B1B6803F00073002BF4
:10332000F0D050E001234FE01D4B1B6803F0007309
:10333000002B48D11A4B1B68194A43F08073136065
:10334000174BDB68164A43F08073D360FDF706FF26
:10335000386108E0FDF702FF02463B69D31A022BF1
:1033600001D9032330E00E4B1B6803F00073002BE0
:10337000F0D028E0BB690C2B23D0094B1B68084A0E
:1033800023F080731360FDF7E9FE38610CE0FDF770
:10339000E5FE02463B69D31A022B05D9032313E04D
:1033A000001002408C809DF9094B1B6803F00073EC
:1033B000002BECD1064BDA680549064B1340CB6075
:1033C00001E0012300E0002318462037BD4680BD00
:1033D00000100240FCFFEEFE80B584B000AF7860C4
:1033E00039607B68002B01D10123E7E0754B1B6836
:1033F00003F007033A689A4210D9724B1B6823F016
:10340000070270493B6813430B606E4B1B6803F067
:1034100007033A689A4201D00123CFE07B681B681A
:1034200003F00203002B10D07B689A68664B9B6800
:1034300003F0F0039A4208D9634B9B6823F0F00233
:103440007B689B68604913438B607B681B6803F053
:103450000103002B4CD07B685B68032B07D15A4BD0
:103460001B6803F00073002B21D10123A6E07B68C9
:103470005B68022B07D1544B1B6803F40033002B0D
:1034800015D101239AE07B685B68002B07D14E4B76
:103490001B6803F00203002B09D101238EE04A4B85
:1034A0001B6803F48063002B01D1012386E0464BA7
:1034B0009B6823F003027B685B68434913438B607E
:1034C000FDF74CFEF8600AE0FDF748FE0246FB6897
:1034D000D31A41F28832934201D903236EE03A4B6A
:1034E0009B6803F00C027B685B689B009A42EBD1FF
:1034F0007B681B6803F00203002B10D07B689A687E
:10350000314B9B6803F0F0039A4208D22E4B9B6824
:1035100023F0F0027B689B682B4913438B60294B97
:103520001B6803F007033A689A4210D2254B1B68C8
:1035300023F0070223493B6813430B60214B1B68B0
:1035400003F007033A689A4201D0012336E07B6812
:103550001B6803F00403002B08D01B4B9B6823F46B
:10356000E0627B68DB68184913438B607B681B68EB
:1035700003F00803002B09D0134B9B6823F460521F
:103580007B681B69DB00104913438B6000F024F853
:1035900002460D4B9B681B0903F00F030B49CB5CE4
:1035A00003F01F0322FA03F3094A1360094B1B6857
:1035B0001846FDF783FD0346FB72FB7A1846103769
:1035C000BD4680BD0020024000100240AC4A000809
:1035D000000000200400002080B489B000AF002368
:1035E000FB610023BB613E4B9B6803F00C033B6116
:1035F0003B4BDB6803F00303FB603B69002B05D00A
:103600003B690C2B21D1FB68012B1ED1344B1B686D
:1036100003F00803002B07D1314BD3F894301B0A79
:1036200003F00F03FB6105E02D4B1B681B0903F042
:103630000F03FB612B4AFB6952F82330FB613B69A6
:10364000002B0DD1FB69BB610AE03B69042B02D161
:10365000254BBB6104E03B69082B01D1234BBB61C7
:103660003B690C2B34D11E4BDB6803F00303BB60BA
:10367000BB68022B03D0BB68032B03D005E01A4BB9
:103680007B6105E0194B7B6102E0FB697B6100BF58
:10369000134BDB681B0903F0070301337B60104BFE
:1036A000DB681B0A03F07F037A6903FB02F27B6885
:1036B000B2FBF3F37B610A4BDB685B0E03F00303A1
:1036C00001335B003B607A693B68B2FBF3F3BB619B
:1036D000BB6918462437BD465DF8047B704700BFC0
:1036E00000100240BC4A00080024F40000127A00D6
:1036F00080B586B000AF786000233B612A4B9B6D9C
:1037000003F08053002B03D0FFF726FA786114E012
:10371000254B9B6D244A43F080539365224B9B6D50
:1037200003F08053FB60FB68FFF716FA78611E4BCD
:103730009B6D1D4A23F0805393657B69B3F5007F31
:103740000BD17B68802B19D97B68A02B02D902236F
:103750003B6113E001233B6110E07B68802B02D9C1
:1037600003233B610AE07B68802B02D102233B618B
:1037700004E07B68702B01D101233B610B4B1B687C
:1037800023F0070209493B6913430B60074B1B6891
:1037900003F007033A699A4201D0012300E00023B5
:1037A00018461837BD4680BD001002400020024078
:1037B00080B586B000AF78600023FB740023BB7433
:1037C0007B681B6803F40063002B41D07B685B6E51
:1037D000B3F5400F2AD0B3F5400F24D8B3F5000F4E
:1037E00008D0B3F5000F1ED8002B0AD0B3F5800F18
:1037F00010D018E0864BDB68854A43F48033D360F1
:1038000015E07B6804330021184600F0BBFA03463C
:10381000FB740CE07B6820330021184600F0A6FB07
:103820000346FB7403E00123FB7400E000BFFB7C54
:10383000002B0BD1764BD3F8883023F440027B6801
:103840005B6E73491343C1F8883001E0FB7CBB74A5
:103850007B681B6803F48053002B41D07B689B6E10
:10386000B3F1407F2AD0B3F1407F24D8B3F1007F79
:1038700008D0B3F1007F1ED8002B0AD0B3F1807FAF
:1038800010D018E0624BDB68614A43F48033D360A8
:1038900015E07B6804330021184600F073FA0346F4
:1038A000FB740CE07B6820330021184600F05EFBBF
:1038B0000346FB7403E00123FB7400E000BFFB7CC4
:1038C000002B0BD1524BD3F8883023F040727B6829
:1038D0009B6E4F491343C1F8883001E0FB7CBB74F9
:1038E0007B681B6803F40033002B00F0A0800023EA
:1038F0007B74474B9B6D03F08053002B01D1012358
:1039000000E00023002B0DD0414B9B6D404A43F05B
:10391000805393653E4B9B6D03F08053BB60BB6847
:1039200001237B743B4B1B683A4A43F4807313605A
:10393000FDF714FCF86009E0FDF710FC0246FB6897
:10394000D31A022B02D90323FB7405E0314B1B6809
:1039500003F48073002BEFD0FB7C002B5CD12C4B4D
:10396000D3F8903003F440737B617B69002B1FD048
:103970007B68D3F884307A699A4219D0244BD3F803
:10398000903023F440737B61214BD3F89030204A70
:1039900043F48033C2F890301D4BD3F890301C4A6A
:1039A00023F48033C2F89030194A7B69C2F8903012
:1039B0007B6903F00103002B16D0FDF7CFFBF86005
:1039C0000BE0FDF7CBFB0246FB68D31A41F28832CD
:1039D000934202D90323FB7406E00D4BD3F89030D9
:1039E00003F00203002BECD0FB7C002B0CD1084B26
:1039F000D3F8903023F440727B68D3F884300449C4
:103A00001343C1F8903009E0FB7CBB7406E000BFB3
:103A10000010024000700040FB7CBB747B7C012BDB
:103A200005D19E4B9B6D9D4A23F0805393657B6827
:103A30001B6803F00103002B0AD0984BD3F88830A1
:103A400023F003027B689B6B94491343C1F88830D1
:103A50007B681B6803F00203002B0AD08F4BD3F85E
:103A6000883023F00C027B68DB6B8C491343C1F870
:103A700088307B681B6803F00403002B0AD0874B57
:103A8000D3F8883023F030027B681B6C83491343E2
:103A9000C1F888307B681B6803F00803002B0AD04C
:103AA0007E4BD3F8883023F0C0027B685B6C7B4987
:103AB0001343C1F888307B681B6803F01003002BA8
:103AC0000AD0764BD3F8883023F440727B689B6C25
:103AD00072491343C1F888307B681B6803F02003E8
:103AE000002B0AD06D4BD3F8883023F440627B68FA
:103AF000DB6C6A491343C1F888307B681B6803F4A8
:103B00000073002B0AD0654BD3F8883023F4402291
:103B10007B68DB6D61491343C1F888307B681B68A3
:103B200003F48063002B0AD05C4BD3F8883023F475
:103B300040127B681B6E59491343C1F888307B687B
:103B40001B6803F04003002B0AD0544BD3F8883095
:103B500023F440527B681B6D50491343C1F88830F1
:103B60007B681B6803F08003002B0AD04B4BD3F813
:103B7000883023F440427B685B6D48491343C1F8A9
:103B800088307B681B6803F48073002B0AD0434B9A
:103B9000D3F8883023F440327B689B6D3F49134350
:103BA000C1F888307B681B6803F40053002B28D0D1
:103BB0003A4BD3F8883023F040627B68DB6E37499C
:103BC0001343C1F888307B68DB6EB3F1006F06D118
:103BD000324BDB68314A43F48013D36011E07B68D9
:103BE000DB6EB3F1806F0CD17B6804330121184682
:103BF00000F0C8F80346FB74FB7C002B01D0FB7C73
:103C0000BB747B681B6803F40023002B28D0234B74
:103C1000D3F8883023F040627B681B6F1F49134341
:103C2000C1F888307B681B6FB3F1006F06D11B4B66
:103C3000DB681A4A43F48013D36011E07B681B6F82
:103C4000B3F1806F0CD17B6804330121184600F07A
:103C500099F80346FB74FB7C002B01D0FB7CBB7402
:103C60007B681B6803F48023002B2BD00B4BD3F80D
:103C7000883023F040627B685B6F08491343C1F8CA
:103C800088307B685B6FB3F1006F09D1034BDB6851
:103C9000024A43F48013D36014E000BF00100240D6
:103CA0007B685B6FB3F1806F0CD17B6804330121BB
:103CB000184600F067F80346FB74FB7C002B01D02C
:103CC000FB7CBB747B681B6803F48043002B2FD004
:103CD0002B4BD3F8883023F040527B689B6F2849E8
:103CE0001343C1F888307B689B6FB3F1805F0DD1BF
:103CF0007B6804330221184600F044F80346FB7445
:103D0000FB7C002B14D0FB7CBB7411E07B689B6FA9
:103D1000B3F1005F0CD17B6820330221184600F01C
:103D200025F90346FB74FB7C002B01D0FB7CBB74A4
:103D30007B681B6803F40043002B0AD0104BD3F8B8
:103D4000883023F080427B68DB6F0D491343C1F854
:103D500088307B681B6803F48033002B0BD0084B42
:103D6000D3F8883023F000427B68D3F880300449D0
:103D70001343C1F88830BB7C18461837BD4680BD58
:103D80000010024080B584B000AF78603960002335
:103D9000FB73754BDB6803F00303002B18D0724BE9
:103DA000DB6803F003027B681B689A420DD17B68D5
:103DB0001B68002B09D06C4BDB681B0903F0070361
:103DC0005A1C7B685B689A4247D00123FB7344E02E
:103DD0007B681B68032B18D0032B25D8012B02D03E
:103DE000022B09D020E0604B1B6803F00203002B7C
:103DF0001DD10123FB731AE05B4B1B6803F4806346
:103E0000002B16D10123FB7313E0574B1B6803F4FF
:103E10000033002B0FD1544B1B6803F48023002B7D
:103E200009D10123FB7306E00123FB7304E000BF0B
:103E300002E000BF00E000BFFB7B002B0DD14A4B2E
:103E4000DB6823F073027B6819687B685B68013B61
:103E50001B010B4344491343CB60FB7B002B7DD1FB
:103E6000414B1B68404A23F080631360FDF776F9ED
:103E7000B86009E0FDF772F90246BB68D31A022B5D
:103E800002D90323FB7305E0374B1B6803F0006383
:103E9000002BEFD1FB7B002B60D13B68002B11D1B5
:103EA000314B1B6923F41F3323F440737A68926803
:103EB00011027A68D268120952040A432A4913434C
:103EC0000B6127E03B68012B12D1274B1B6923F4C0
:103ED000C00323F4FE437A68926811027A6812697B
:103EE0005208013A52050A431F4913430B6111E07E
:103EF0001D4B1B6923F0C06323F4FE437A6892686C
:103F000011027A6852695208013A52060A43164968
:103F100013430B61144B1B68134A43F08063136017
:103F2000FDF71CF9B86009E0FDF718F90246BB6817
:103F3000D31A022B02D90323FB7305E00A4B1B683B
:103F400003F00063002BEFD0FB7B002B06D1064B68
:103F50001A697B689B69044913430B61FB7B184614
:103F60001037BD4680BD00BF0010024080B584B050
:103F700000AF786039600023FB736A4BDB6803F0A5
:103F80000303002B18D0674BDB6803F003027B6848
:103F90001B689A420DD17B681B68002B09D0614BCE
:103FA000DB681B0903F007035A1C7B685B689A42B5
:103FB00047D00123FB7344E07B681B68032B18D0B8
:103FC000032B25D8012B02D0022B09D020E0554B22
:103FD0001B6803F00203002B1DD10123FB731AE0C1
:103FE000504B1B6803F48063002B16D10123FB7335
:103FF00013E04C4B1B6803F40033002B0FD1494BEB
:104000001B6803F48023002B09D10123FB7306E016
:104010000123FB7304E000BF02E000BF00E000BF2B
:10402000FB7B002B0DD13F4BDB6823F073027B68D9
:1040300019687B685B68013B1B010B4339491343DB
:10404000CB60FB7B002B67D1364B1B68354A23F0D6
:1040500080531360FDF782F8B86009E0FDF77EF841
:104060000246BB68D31A022B02D90323FB7305E077
:104070002C4B1B6803F00053002BEFD1FB7B002B74
:104080004AD13B68002B11D1264B5B6923F41F33C7
:1040900023F440737A68926811027A68D268120930
:1040A00052040A431F4913434B6111E01D4B5B69E6
:1040B00023F0C06323F4FE437A68926811027A68A1
:1040C00012695208013A52060A43164913434B61DA
:1040D000144B1B68134A43F080531360FDF73EF8FE
:1040E000B86009E0FDF73AF80246BB68D31A022B24
:1040F00002D90323FB7305E00A4B1B6803F000534E
:10410000002BEFD0FB7B002B06D1064B5A697B6856
:104110005B69044913434B61FB7B18461037BD466E
:1041200080BD00BF00100240014B1868704700BFFF
:104130000C00002070B50D4D0D4C641BA410002622
:10414000A64209D10B4D0C4C00F08EFC641BA41050
:104150000026A64205D170BD55F8043B98470136AC
:10416000EEE755F8043B98470136F2E7204B00088C
:10417000204B0008204B0008244B00080244034653
:10418000934200D1704703F8011BF9E70EB400B564
:104190009CB01DAB029006906FF00041094807915A
:1041A0000491094953F8042B05910068019302A971
:1041B00000F068F8029B00221A701CB05DF804EB56
:1041C00003B070470C0000200802FFFF2DE9F04704
:1041D0008E689E4282460C4690461F4638D88A8991
:1041E00012F4906F32D025680969A5EB0109656961
:1041F00005EB450505EBD57501334B446D109D422C
:1042000038BF1D46530531D5294600F063FB0646ED
:1042100050B90C23CAF80030A38943F04003A381AE
:104220004FF0FF30BDE8F08721694A4600F0BEFA42
:10423000A38923F4906343F08003A3812661656121
:104240004E44A5EB09052660A5603E46BE4200D956
:104250003E4620683246414600F0B6FAA3689B1BF2
:10426000A3602368334423600020DBE72A4600F084
:10427000A5FB06460028E1D12169504600F0BEFAB0
:10428000C7E700002DE9F04F98468B891B069DB0CB
:1042900007460D4614460ED50B6963B9402100F060
:1042A00019FB2860286120B90C233B604FF0FF30D8
:1042B000D1E040236B610023099320238DF829303E
:1042C000CDF80C803023DFF8A8818DF82A304FF02C
:1042D000010923469A4613F8012B0AB1252AF9D180
:1042E000BAEB040B0BD05B46224629463846FFF753
:1042F0006DFF013000F0AA80099A5A4409929AF899
:104300000030002B00F0A28000234FF0FF32CDE9F7
:1043100005230AF1010A049307938DF853301A9389
:104320005446052214F8011B5148FBF751FF049A2B
:10433000D8B9D00644BF20238DF85330110744BFAD
:104340002B238DF853309AF800302A2B15D0079A7A
:10435000544600204FF00A0C214611F8013B303B37
:10436000092B4ED9B0B1079214E0A0EB080309FA6B
:1043700003F313430493A246D2E7039B191D1B6862
:104380000391002BBBBF5B4242F0020207930793ED
:10439000B8BF049223782E2B0CD163782A2B35D109
:1043A000039B1A1D1B680392002BB8BF4FF0FF330D
:1043B00002340593DFF8C8A0217803225046FBF7AA
:1043C00007FF40B14023A0EB0A0003FA00F0049B72
:1043D00003430134049314F8011B26488DF8281078
:1043E0000622FBF7F5FE002838D0234B1BBB039BAE
:1043F000073323F0070308330393099B33440993DE
:1044000067E70CFB02320C460120A5E700230134CC
:10441000059319464FF00A0C204610F8012B303A4C
:10442000092A03D9002BC5D00591C3E70CFB012154
:1044300004460123F0E703AB00932A460F4B04A97F
:104440003846AFF30080421C0646D6D1AB895B06E6
:104450003FF52CAF09981DB0BDE8F08F03AB00937A
:104460002A46064B04A9384600F07AF8EBE700BF6D
:10447000EC4A0008F64A000800000000CD410008A0
:10448000F24A00082DE9F047164699468A680B69FA
:10449000DDF820809342B8BF1346336091F8432083
:1044A00007460C460AB1013333602368990642BFC0
:1044B000336802333360256815F0060506D104F130
:1044C000190AE36832689B1AAB4226DC94F8432051
:1044D000131E226818BF012392062BD404F1430255
:1044E00049463846C04701301ED02368E568326827
:1044F00003F00603042B08BFAD1AA36822690CBFA2
:1045000025EAE57500259342C4BF9B1AED180026E5
:104510001A34B5421AD1002008E001235246494618
:104520003846C047013003D14FF0FF30BDE8F08777
:104530000135C6E7E1185A1C302081F843002244B7
:1045400094F8451082F843100233C7E7012322464E
:1045500049463846C0470130E6D00136D9E7000069
:104560002DE9FF470F7E0C9D782F914680460C4623
:104570009A4601F1430207D8622F0AD8002F00F0B3
:10458000D880582F00F0A38004F1420584F84270CF
:104590003AE0A7F16303152BF6D801A151F823F0F7
:1045A000F94500080D4600088945000889450008BE
:1045B00089450008894500080D460008894500081E
:1045C0008945000889450008894500081947000801
:1045D0003D460008FB46000889450008894500085B
:1045E0003B470008894500083D460008894500080A
:1045F00089450008034700082B681A1D1B682A60BC
:1046000004F1420584F842300123A3E020682968C0
:10461000060601F104030AD50E682B60002E03DAAA
:104620002D23764284F843305E480A2319E00E6851
:104630002B6010F0400F18BF36B2EFE72B682068F0
:10464000191D2960010601D51E6802E04606FBD54A
:104650001E8854486F2F0CBF08230A23002184F8BA
:1046600043106568A560002DA2BF216821F00401F8
:1046700021600EB9002D4DD01546B6FBF3F103FBBA
:104680001167C75D05F8017D3746BB420E46F4D978
:10469000082B0BD12368DE0708D52369616899428E
:1046A000DEBF302305F8013C05F1FF35521B2261C6
:1046B000CDF800A04B4603AA21464046FFF7E2FE94
:1046C00001304CD14FF0FF3004B0BDE8F0873548E1
:1046D00081F845702968236851F8046B29601D062C
:1046E00014D5DF0744BF43F0200323601EB92368BD
:1046F00023F0200323601023B0E7236843F0200356
:1047000023607823284884F84530E3E7590648BFFA
:10471000B6B2E6E71546BBE72B6826686169181D47
:10472000286035061B6801D5196002E07006FBD5CC
:104730001980002323611546BAE72B681A1D2A60E9
:104740001D68626800212846FBF742FD08B1401B46
:10475000606063682361002384F84330A8E723691D
:104760002A4649464046D0470130ABD023689B07D4
:1047700013D4E068039B9842B8BF1846A4E701230E
:10478000324649464046D04701309BD00135E36868
:1047900003995B1AAB42F2DCEBE7002504F1190642
:1047A000F5E700BFFD4A00080E4B00080A4491429D
:1047B00000F1FF3300D1704710B511F8014B03F839
:1047C000014F9142F9D110BD884210B501EB0204AE
:1047D00002D98442234607D8431EA14208D011F8CB
:1047E000012B03F8012FF8E7024401468A4200D169
:1047F00010BD13F8014D02F8014DF7E737B5002958
:1048000044D051F8043C0190002BA1F10404B8BF3E
:10481000E41800F013F91E4A0198136833B9636075
:10482000146003B0BDE8304000F00EB9A34208D9CF
:10483000256861198B4201BF19685B6849192160BD
:10484000EDE71A465B680BB1A342FAD91168551817
:10485000A5420BD1246821445418A3421160E0D131
:104860001C685B68536021441160DAE702D90C23AD
:104870000360D6E7256861198B4204BF19685B683D
:10488000636004BF491921605460CAE703B030BDBA
:10489000D803002070B50E4E0C463168054611B99C
:1048A00000F0BCF830602146284600F0B7F8431C01
:1048B0000AD0C41C24F00304A04207D0211A2846C1
:1048C00000F0ACF8013001D14FF0FF34204670BD4C
:1048D000DC0300202DE9F041CD1C25F0030508354F
:1048E0000C2D38BF0C25002D074601DBA94205D948
:1048F0000C233B6000263046BDE8F0812E4E00F0D0
:104900009DF833681C4634BB29463846FFF7C2FF82
:10491000431C04464DD134682646002E40D12368FE
:104920003146384604EB030800F078F880453AD168
:10493000216803356D1A25F0030508350C2D38BFA5
:104940000C2529463846FFF7A5FF01302BD02368F8
:104950002B4423600EE02268521B1ED40B2A16D96A
:104960006119A342256018BF5960636808BF3160B0
:1049700062514B60384604F10B0600F065F826F0F2
:104980000706231DF21AB6D09B1BA350B3E762683B
:10499000A3420CBF32605A60ECE723466468B2E77A
:1049A00034467668B9E70C233B60384600F04CF893
:1049B000A1E72560DEE700BFD80300202DE9F04124
:1049C000804614460E4621B9BDE8F0411146FFF776
:1049D00081BF2AB9FFF712FF25462846BDE8F081BE
:1049E00000F038F88442074602D8B4EB500F12D8D2
:1049F00021464046FFF76EFF05460028EDD0BC4239
:104A00002246314628BF3A46FFF7D0FE314640469F
:104A1000FFF7F4FEE1E73546DFE7000038B5064D65
:104A20000023044608462B60FCF7BEFA431C02D163
:104A30002B6803B1236038BDE0030020014800F07B
:104A400011B800BFE4030020014800F00CB800BF1B
:104A5000E403002051F8043C181F002BBCBF0B5886
:104A6000C018704770477047F8B500BFF8BC08BC65
:104A70009E467047F8B500BFF8BC08BC9E4670471C
:104A8000257500007B22504D31223A252E32662CAE
:104A900022504D322E35223A252E32662C22504D90
:104AA0003130223A252E32667D00000000000000E1
:104AB000000000000102030406070809A0860100A7
:104AC000400D0300801A060000350C0040420F0024
:104AD00080841E0000093D0000127A000024F400CA
:104AE00000366E010048E801006CDC02232D302BFB
:104AF0002000686C4C0065666745464700303132DF
:104B00003334353637383941424344454600303135
:104B10003233343536373839616263646566000094
:044B2000B5010008D3
:044B240091010008F3
:104B280000093D00100000000100000010000020F6
:104B3800000000000000000000000000000000006D
:104B4800000000000000000000000000000000005D
:104B5800000000000000000000000000000000004D
:104B6800000000000000000000000000000000003D
:104B7800000000000000000000000000000000002D
:104B8800000000000000000000000000000000001D
:0400000508001039A6
:00000001FF
